:020000040000FA
:1000000090080020F1000000F5000000D50000007D
:1000100000000000000000000000000000000000E0
:10002000000000000000000000000000F9000000D7
:100030000000000000000000FB000000FD000000C8
:10004000FF000000FF000000FF000000FF000000B4
:10005000FF000000FF000000FF000000FF000000A4
:10006000FF00000069220000FF000000FF00000008
:10007000F1220000F9220000FF000000FF00000054
:10008000FF000000FF000000FF000000FF00000074
:10009000FF000000FF000000FF000000FF00000064
:1000A000FF000000FF000000FF000000FF00000054
:1000B000FF000000FF000000FF000000FF00000044
:1000C0000348854600F05CFA0048004769310000AB
:1000D0009008002004207146084202D0EFF3098006
:1000E00001E0EFF308807146004A1047C91500008F
:1000F00003480047FEE7FEE7FEE7FEE7FEE7FEE710
:10010000C100000030B50B4601460020202201242A
:1001100009E00D46D5409D4205D31D469540491B3B
:100120002546954040191546521E002DF1DC30BD84
:1001300070B500242546002801DA01244042002938
:1001400001DA01254942FFF7DDFFAC4200D0404211
:10015000002C00D0494270BD0549064A086850434A
:10016000054A8018086040087047014908607047D8
:10017000A80200206D4EC64139300000F8B5024695
:100180004A40D40F42004B0052085B089A4202D208
:100190000246084611464A0023D0C30D4A00DDB28C
:1001A000120EAD1A202D35DA49020126490AF6054C
:1001B0008A19002C00D0524220214F1B1146B94011
:1001C0002A411018C20D9A4221D0002C17D0012DBF
:1001D00008DCDA05801AD20F8019D207DBB200F0F2
:1001E000E6F8F8BDDA05801A012340001B06C018A6
:1001F00080185A428018CA0F1043490007E0490886
:10020000C2071143DA05801A80194008801800F0EF
:10021000C6F8F8BD61000122511A001BF7E7012260
:10022000D2075140AAE70122D2075040A6E7024672
:1002300070B54A40D30FDB0740002DD04A002AD0CA
:10024000010E140E000212020919400A520A841803
:10025000E50104465443000A120A2E045043A4192F
:100260004219200CC543AA18120C0125AD03521CDB
:10027000521912047F39240400D0521C104301D4B7
:100280004000491EC2B20C06C0092018401C40089C
:10029000802A02D003E0002070BD40084000002901
:1002A00000DA0020184370BD10B5002296231146D5
:1002B00000F07DF810BD00004A0009030123090B7E
:1002C0001B051943094B10B5520D9A4201DA002063
:1002D00010BD064B34339A4203DC9A1A00F04EF8F4
:1002E00010BD03495118884010BD0000FF030000F5
:1002F000CDFBFFFFC20FD207400040080BD0C10D5D
:100300000723DB01C91840020905400A1143C2084E
:10031000400711437047002001467047F0B51FB4F5
:100320000646002082B005464024019100901BE063
:10033000019922460F46304600F020F8049A059BAA
:10034000801A994110D310461946224600F02AF926
:10035000361A8F410197224601200021009F00F0AC
:1003600021F938184D4100902046641E0028DFDC3A
:10037000019B00982946324607B0F0BD10B5202AEF
:1003800004DB0846203AD040002110BD0B46D34084
:10039000D0402024A21A91400843194610BD0029DC
:1003A00004DA401C490001D140084000704770B495
:1003B0000024050C05D11024000402D1002921D00D
:1003C0001124050E01D100020834050F01D10001EE
:1003D000241D850F01D18000A41C002801DB4000F2
:1003E000641C002908D020252E1B0D46F540A14095
:1003F00000D001212943084301061B1B000ADB1D15
:1004000002D5002070BC7047DB0518188018002941
:10041000F8DA401C4900F5D170BC40084000704734
:1004200010B5002B08DA0024401C614192185B4192
:100430001A4301D14008400010BDF0B51FB482B08E
:1004400005460C0003D0084602F0BAFC02E002F0B8
:10045000B7FC2030024600902146284600F0A2F862
:10046000049B059A04460F4618431143084314D0D1
:10047000184610431BD0009840210A1A18460599C7
:10048000FFF77CFF05460E46009A0599049800F098
:1004900089F8084305D0012004E02046394607B01A
:1004A000F0BD0020C11705430E432C43374300998C
:1004B0000E986305401A7905E40A00220C43FD0AF0
:1004C0000A3002D500200146E9E70105101969410B
:1004D0000C9C0D9D00196941FFF7A2FFDFE7FEB5F7
:1004E00000231A461B1A8A4103DB0020014603B091
:1004F000F0BD4A000D0301212D0B0905520D0D43DE
:10050000D10702D100186D41521E5110FF31FF3149
:100510000131002704463E463846009701910246C5
:10052000012100200905FFF729FFC3197141F818BF
:10053000324684468E464A4161462846611A9041B9
:1005400004D36046241A954176461F462419009824
:100550006D41401C00903428E1DDF91930467041AE
:10056000091BA84103D20022D243134601E0002216
:10057000134601980105381C7141FFF751FFB6E79A
:10058000064C0125064E05E0E36807CC2B430C3CE6
:1005900098471034B442F7D3FFF796FDA03300001C
:1005A000C033000010B5202A04DB0146203A9140F8
:1005B000002010BD914020239C1A0346E3401943BC
:1005C000904010BD70B58D180478401CA207920FA2
:1005D00001D10278401C231106D10378401C03E0AE
:1005E00006780E70401C491C521EF9D1002B15D004
:1005F00002780C268A1A3440401C0C2C03D0A4012B
:10060000121B9B1C08E004782402121B401CF8E714
:1006100014780C70491C521C5B1EF9D5A942D3D327
:10062000002070BD10B5102300221146084800F0CC
:1006300011F80748006A0121084305490862084685
:10064000006A0121C90208430149086210BD000087
:1006500000000E4030B5044C646A240A24021C4396
:10066000014D6C6230BD000000000E4010B54048E6
:100670000078002806D0012805D0022832D00328AF
:1006800074D148E072E03B48007801280CD100208A
:10069000384908703849087000220C21374800F0AA
:1006A0007BFF01203649886133480078401C32497D
:1006B000087008460078052813DD002008702C49D2
:1006C000087005200007406B2E49084005210907E6
:1006D00048630846406B0321890208430521090746
:1006E000486343E0002023490870234908702449E7
:1006F00088611F49087005200007406B21490840A8
:100700000521090748630846406B486300201C49DF
:100710008862C8622AE017480078012815D10020B5
:1007200014490870144908701549886105200007AC
:10073000406B144908400521090748630846406B8F
:10074000486300200E498862C8620B480078401C4C
:100750000949087008460078052806DD0020087061
:100760000120034908700349087000BF00BF10BD95
:1007700000000020020000200A000020404000503D
:1007800000420050F3F3FFF310B5364840690128EA
:100790001CD1002034490870487034480078401C4F
:1007A000324908700846007832282BDB0020087098
:1007B00008464078401C4870084640780A2821DBEB
:1007C0000020487001202A4908701BE000202749BA
:1007D0000870487024480078401C23490870084677
:1007E000007832280EDB0020087008464078401C54
:1007F0004870084640780A2804DB00204870012031
:100800001B4908701B480078012806D100201949AF
:100810000870194908704870887017480078401CA3
:100820001549087008460078322818DB0020087047
:1008300008464078401C4870084640783C280EDB4B
:100840000020487008468078401C887008468078F0
:100850003C2804DB00208870012005490870FFF760
:1008600005FF10BD004200500500002003000020DD
:1008700002000020010000200700002010B5012424
:1008800024051948007801282CD100201649087049
:1008900001F0E6FB00F0FEFD14480068202108434B
:1008A00012490860204600F0D3FD11480178204627
:1008B00000F00EFE241D0F480178204600F008FECF
:1008C000241D0D480178204600F002FE241D0B482F
:1008D0000178204600F0FCFD00BF002008490860B8
:1008E00000BF00BF10BD00001900002000C0005074
:1008F0000C0000200E0000200D0000200F00002042
:10090000000100500348006A01210904084301491D
:100910000862704700020050C10F8900064A89181A
:100920004968C306DB0E01229A401143C20F9200B0
:10093000014BD2185160704700020050F3B58BB0E4
:100940000C46FFF7DFFF0B98002810D17F480068A6
:1009500080088000401C7D490860012000F01EFBDB
:10096000002007907A480A90022006900FE077480E
:1009700000680421084375490860102000F00EFB50
:100980000120C004079073480A9004200690724822
:10099000844205D84010844202D90020089014E017
:1009A0006E48844206D84010844203D30120089048
:1009B00064000AE06A48844206D24010844203D3AD
:1009C00003200890A40000E0B0E00020C0430490A1
:1009D000002002900390069E4CE031460A98FFF7F3
:1009E00091FB07465F498F4243D95F48874240D217
:1009F0000220099039E03D46099845435748854211
:100A000030D3400085422DD8A54201D9281B00E0F3
:100A1000601B059004990598884223D2059804909C
:100A2000029609980390049800281BD10898800327
:100A3000079908430299891E490208430399891EB0
:100A4000084342490862042000F0A8FA0898401CB4
:100A5000029A504301460A98FFF754FB0399484312
:100A60000DB0F0BD0998401C099040490998884292
:100A7000C1D9761C212EB0D9049801900020C04322
:100A80000490002002900390069E4CE031460A98A4
:100A9000FFF738FB07463348874243D9324887423D
:100AA00040D20220099039E00998784305462B4846
:100AB000854230D3400085422DD8A54201D9281B5C
:100AC00000E0601B059004990598884223D20598A0
:100AD00004900296099803900199049888421AD1CB
:100AE00008988003079908430299891E4902084320
:100AF0000399891E084315490862042000F04EFA44
:100B00000898401C029A504301460A98FFF7FAFAE7
:100B100003994843A4E70998401C09901349099890
:100B20008842C1D9761C212EB0D900BF0B9800286D
:100B300003D10F480549086202E00E4803490862E4
:100B4000042000F02BFA00F02BF889E70002005097
:100B5000001BB7000080510100C2EB0B00E1F5055E
:100B600080F0FA02006A1800C0E1E400010200000F
:100B700016400000184408008107890F002907D09B
:100B800006490968890889000143044A116004E0A4
:100B9000024909680143014A116070470002005090
:100BA000FEB5002002901AA0006800901948046A5F
:100BB00000132040002801D00020FEBD0120C00409
:100BC0002040002801D0144D00E0144D01204004C5
:100BD0002040002801D02846EFE703208003204072
:100BE000800B69460A5C0192E005C00D861C1F203F
:100BF00040022040400A871C019A7A431146AA0805
:100C000072431046FFF77EFA800002900298D4E704
:100C1000010202040002005000805101001BB700D5
:100C2000FEB5002002901AA0006800901948046ADE
:100C300000132040002801D00020FEBD0120C00488
:100C40002040002801D0144D00E0144D0120400444
:100C50002040002801D02846EFE7032080032040F1
:100C6000800B69460A5C0192E005C00D861C1F20BE
:100C700040022040400A871C019A7A431146AA0884
:100C800072431046FFF73EFA800002900298D4E7C4
:100C9000010202040002005000805101001BB70055
:100CA000FEB5002002901AA0006800901948046A5E
:100CB00000132040002801D00020FEBD0120C00408
:100CC0002040002801D0144D00E0144D01204004C4
:100CD0002040002801D02846EFE703208003204071
:100CE000800B69460A5C0192E005C00D861C1F203E
:100CF00040022040400A871C019A7A431146AA0804
:100D000072431046FFF7FEF9800002900298D4E784
:100D1000010202040002005000805101001BB700D4
:100D200010B501F08DF949484068494908404749E4
:100D30004860084640680321084344494860012050
:100D4000FFF71AFF012000F029F942490870084610
:100D50000078002809D10420FFF70EFF102000F0D2
:100D60001DF90021072000F0D1F83B4800F080F881
:100D70003A48806803210904884338498860084656
:100D800080680321090408433449886008464069A3
:100D90000321090688433149486105200007406B5B
:100DA0002F4908400521090748630846406B032185
:100DB000890208430521090748630846806B2949D1
:100DC00008400521090788630846806B30210843E5
:100DD0000521090788632448FFF79EFD05221204B8
:100DE0000021214800F0A8F805200007406B1021E1
:100DF00008430521090748631C484068012109058B
:100E000008431A494860154880680421084313497B
:100E10008860084640690721090288430F494861F4
:100E200008468068082108430C49886008464069E4
:100E30000721090388430949486101F041F900BFCE
:100E400000200249C031086000BF10BD40000050C2
:100E5000FCFCFFFF0B000020006CDC0200020050D5
:100E6000F3F3FFF3CFCFFFFF1CFE23A6404000505B
:100E700070B504462248C068102108400546214844
:100E8000844200D904462048844200D204461C48CB
:100E90000068042108431A490860102000F07EF819
:100EA0001748006907210843154908610846806909
:100EB000000900018861084600688007800F01284A
:100EC00005D161000020FFF739FD04460AE061000A
:100ED0000120C004FFF732FD04460948C068102114
:100EE000084005460121022000F010F8002D05D130
:100EF000034800680421884301490860600870BD08
:100F00000002005080F0FA0240787D0170B504467E
:100F10000D46084880690009000128430549886199
:100F200008460069C008C0002043086101F0C8F805
:100F300070BD000000020050F0B50B4600210024F7
:100F40000025C600360F002E0FD04600B60FB600A3
:100F5000114FF4192168C600370FC601F60EB740CD
:100F60000E46BE431E43314621608603360E002ED8
:100F700010D00603B60FB600074F0837F5192968D9
:100F80008603370E8605F60EB7400E46BE4316435F
:100F900031462960F0BD0000100200500146074AAA
:100FA00005E01046521E002801DC0020704704486E
:100FB000C06808408842F4D10120F7E780F520009E
:100FC000000200502148007800280DD12048007808
:100FD000401C1F49087008460078962804DB012051
:100FE0001A4908701B4908701B48007800280CD06B
:100FF0001A480078401C19490870084600780F28E4
:1010000003DB002008701449087015480078002898
:1010100000D1704700201249087001200E49087065
:1010200000200E49087001200E490870074800781A
:10103000002809D10C484078F02805D10120034947
:10104000087004490870E4E700BFE2E717000020D9
:1010500016000020EE0200201200002011000020E7
:101060002700002001000020CE020020002000BF49
:101070000DE023490968234A115421498969012255
:1010800092031140002900D003E0411CC8B214288B
:10109000EFDB00BF022802D0072824D113E0194952
:1010A0000978FD290BD117494978F02907D115494D
:1010B0008978FE2903D10221134A117002E003212D
:1010C000114A117019E00F490978FD2907D10D491E
:1010D000C979FE2903D102210B4A117002E00321D4
:1010E000094A117009E00321074A1170044989680F
:1010F00002221143024A916000BF00BF7047000006
:10110000000005400E03002029000020002018499F
:10111000097802290FD0032900D027E0002004E03D
:101120000021144A1154411CC8B21428F8DB0021D4
:101130000F4A11701AE001210F4A1170002006E0D9
:101140000C4A411C525C0D490A54411CC8B2062885
:10115000F6DB002004E00021064A1154411CC8B20D
:101160001428F8DB0021024A117000BF00BF70474D
:10117000290000200E03002027000020CF020020BD
:1011800001490860704700000000054010B50024C8
:1011900034480078002800D110BD3248007801287A
:1011A0001ED1FC20FFF7ECFF5620FFF7E9FF572088
:1011B000FFF7E6FF4220FFF7E3FF3020FFF7E0FFF5
:1011C0003020FFF7DDFF3020FFF7DAFF3020FFF798
:1011D000D7FFFE20FFF7D4FF002022490870DBE78D
:1011E00020480078022814D1FD20FFF7C9FF002411
:1011F00006E01C49491C085DFFF7C2FF601CC4B231
:10120000082CF6DBFE20FFF7BBFF00201549087015
:10121000C2E714480078032814D1F920FFF7B0FF83
:10122000002406E00F49491C085DFFF7A9FF601C78
:10123000C4B20A2CF6DBFE20FFF7A2FF002009490A
:101240000870A9E7002007490870002405E0002184
:101250000448401C0155601CC4B20A2CF7DB00BFD7
:101260009AE70000EE02002010B51D480088C73044
:1012700000B21B49088000F0BDF9FFF7A3FE01F0A2
:1012800043FA00F057FE17480078032826DB16487B
:101290000078012822D10020124908700320134948
:1012A0000870134800780001032108430F49487073
:1012B00000210E4881703F21C170FF2101710C484F
:1012C0000078000103210843C1B2084841710A2196
:1012D00081710021C17101724172817210BD0000E3
:1012E000140000203800002037000020EE0200200B
:1012F00013000020F0B58DB000F076FE00200C90B9
:101300009CE001260C988640002591E000248AE0AC
:1013100071004020FEF7F6FE6043C0004A494018C5
:1013200005904068009028198019C000474940186E
:10133000029005980368029807793A4647793F0278
:101340003A4387793F043A43C17909060A4307784B
:10135000394647783F02394387783F043943C0789C
:101360000006014303A801F047FF04990398079181
:101370000690079800902819C0003449401803903F
:1013800007793A4647793F023A4387793F043A431F
:10139000C17909060A430778394647783F0239433D
:1013A00087783F043943C0780006014304A8069BB0
:1013B00001F0BCFE059904980B910A9007980090E3
:1013C0002819C00021494018039007793A46477907
:1013D0003F023A4387793F043A43C17909060A43F9
:1013E0000778394647783F02394387783F043943C5
:1013F000C0780006014304A8069B01F09DFF0599F3
:101400000498099108902819C000104940180B9AB7
:101410000A9906C028198019C0000C494018099A79
:10142000089906C0641CB44200D271E770004519E7
:10143000402D00D26AE70C98401C0C900C980628AE
:1014400000D25EE70DB0F0BD50000020BC030020CC
:10145000014622200E4AD0601046416001201061F2
:1014600000BF0B480069C007C00F0028F9D1084829
:10147000006840221040002807D00548006810434B
:10148000034A10600020C04370470020FCE70000C2
:1014900000C000500348006801210843014908606A
:1014A0007047000000C0005001460020074AD0608D
:1014B000104641600120106100BF04480069C00768
:1014C000C00F0028F9D101488068704700C0005063
:1014D0002122074BDA601A465060916001221A619E
:1014E00000BF034A1269D207D20F002AF9D1704710
:1014F00000C0005010B50124240500F0B1FDFFF735
:10150000C9FF11480068202108430F4908602046A0
:10151000FFF7CAFF0D490870241D2046FFF7C4FFDE
:101520000B490870241D2046FFF7BEFF09490870CB
:10153000241D2046FFF7B8FF0749087000BF0020B0
:101540000649086000BF10BD00C000500C0000201C
:101550000E0000200D0000200F00002000010050B0
:1015600010B5032220210A4800F016F80122C021FC
:10157000074800F011F800200649C8610120886181
:10158000032220210248C03000F006F810BD000000
:10159000004000500042005070B5034600200FE0AC
:1015A000012484400C40002C09D01C68460003250F
:1015B000B540AC4346001546B5402C431C60401C6A
:1015C0000828EDD370BD0000044604A001F0E8FB3C
:1015D000204601F05DFE00BFFEE70000496E204896
:1015E000617264204661756C742048616E646C653C
:1015F000720A000005480078012806D003480078E8
:10160000022802D000200149087070471A0000200B
:101610000D48406B012813D10C480078002812D1E6
:101620000B480078401C0A490870084600780528D5
:1016300009DB00200870054908700649087002E0BF
:101640000120044908707047404200501C000020EF
:101650001B0000203700002010B50F480078030061
:1016600001F0C5FB0604070A0D10130700F0DCF8B3
:101670000EE001F0ADFA0BE000F0B2FF08E000F080
:1016800037FF05E000F00CF802E000F007F800BFBB
:1016900000BF00F0EFF810BD1D00002070470000F3
:1016A000002057490978012923D10021544A11709B
:1016B00000BF0EE0002142008218524BD218517038
:1016C00042008218995442008218D2189170411C2D
:1016D000C8B20A28EEDB01214B4A117000214B4AA7
:1016E00011704B4A11704B4A11704B4A11704B4AA2
:1016F000117047490978002902D001297AD150E0B8
:1017000042490978491C414A117011460978032958
:1017100046DD002111703F4A1170F0213E4A1170E0
:1017200000213E4A11703E490978491C3C4A11701B
:10173000114609780C2906DD002111703449097819
:10174000491C334A117009201EE0411E4A008918C5
:101750002C4A89184978420082182A4BD2185170B5
:10176000411E4A0089181A46515C42008218995459
:10177000411E4A0089181A46891889784200821841
:10178000D2189170411EC8B20028DEDC21490978C8
:101790001C4A5170204909781170204909789170CC
:1017A00028E01D490978002905DD1B490978C91E73
:1017B000194A117005E000211A4A11700121104ADE
:1017C0001170002013E013490978420082180D4B74
:1017D000D2185170104909784200821899540F4963
:1017E000097842008218D2189170411CC8B20A28A8
:1017F000E9DB00BF00BF0121034A11707047000000
:101800001E000020B00200201F0000202100002048
:1018100020000020220000202300002024000020BF
:10182000260000201D00002000200F490978012912
:1018300018D100210C4A117000BF0EE000214200B7
:1018400082180A4BD21851704200821899544200F3
:101850008218D2189170411CC8B20A28EEDB01210F
:10186000034A1170704700001E000020B0020020E3
:101870001F00002038B50020002100220023002492
:101880000094314C2478002C00D138BD00242E4D1A
:101890002C702E4B002152E01A785B1C00204AE08D
:1018A00080241440802C20D10124294DEC6100BFFC
:1018B00000BF00BF00BF00BF00BF00BF00BF00BF30
:1018C00000BF00BF00BF00BF00BF00BF00BF00BF20
:1018D00000BF00BF00BF00BF00BF00241C4DEC6173
:1018E00000BF00BF00BF00BF21E00124184DEC6124
:1018F00000BF00BF00BF00BF00BF00BF0024144DE9
:10190000EC6100BF00BF00BF00BF00BF00BF00BF51
:1019100000BF00BF00BF00BF00BF00BF00BF00BFCF
:1019200000BF00BF00BF00BF00BF00BF00BF540624
:10193000220E441CE0B20828B2DB4C1CE1B21E2986
:10194000AADB00BFA1E700001F000020B0020020BA
:101950000042005010B5FFF7E3F9FFF701FE00F079
:1019600059FC00F067FDFEF75DFE10BD70B5044642
:10197000049D0020A04200DA2046884200DA084692
:10198000904200DA1046984200DA1846A84200DA7F
:10199000284670BDF0B587B000240025FE480078C9
:1019A000012808D1FD480078002802D00120FC4918
:1019B000087007B0F0BDFB48007800281FD1FA4836
:1019C0000078401CF8490870F4480078002802D0DC
:1019D0000120F3490870F44800780F280EDB00203E
:1019E000F1490870EE49087000BFF0480068012115
:1019F00089070843ED49086000BF00BFD9E7002010
:101A0000E849087000240FE06100E94A505AFEF7E7
:101A10004BFCE849095DC900E74A50500020E1004D
:101A200089184860601CC4B2402CEDDBFFF762FCF3
:101A30000020E2490880002435E0E200DE4B99589E
:101A4000E2009858FEF7F3FBE200DB4BD21802905D
:101A50005168E200D2185068FEF7E9FB0190029944
:101A6000FEF78CFB0390FEF745FC0591049001F016
:101A7000EBFB0646FEF720FC6100D14A5052002CD9
:101A80000FDD202C0DDA60001146085ACB49098879
:101A9000884206DD60001146085AC8490880C948D6
:101AA0000470601CC4B2402CC7DBC44800883228D4
:101AB0000BDAC24800880F2807DDC048018864207F
:101AC000FEF736FBC049087002E00120BE490870ED
:101AD000BB484089BA4E00903389F288B18870883B
:101AE000FFF744FFB8490978484385B2912D00DDDE
:101AF000912509212846FEF71BFB0007000FB3497B
:101B00008978090909010843B04988700846807836
:101B10000007000F032827DAA84800880F2823DDD4
:101B2000AB480088AB49401800B2A9490880FEF7CD
:101B300013FBC6B203213046FEF7FAFA0F46A2495C
:101B400009789E4A1288514308461921FEF7F0FA97
:101B500038180007000F05909C48807800090001A4
:101B600005990843994988709548808A944E009059
:101B7000738A328AF189B089FFF7F8FE92490978B1
:101B8000484385B2912D00DD912509212846FEF7B5
:101B9000CFFA0001F02108408C498978F022914366
:101BA00008438A498870084680780009032827DAA4
:101BB000824800880F2823DD854800888549401821
:101BC00000B283490880FEF7C7FAC6B20321304647
:101BD000FEF7AEFA0F467C490978784A12885143DD
:101BE00008461921FEF7A4FA38180001F021084030
:101BF0000590764880788843059908437349887032
:101C00006F48C08B6E4E0090B38B728B318BF08A15
:101C1000FFF7ACFE6C490978484385B2912D00DD91
:101C2000912509212846FEF783FA0007000F67492E
:101C3000C9780909090108436449C8700846C07891
:101C40000007000F032827DA5C4800880F2823DDEF
:101C50005F4800885F49401800B25D490880FEF780
:101C60007BFAC6B203213046FEF762FA0F465649A8
:101C70000978524A1288514308461921FEF758FA4A
:101C800038180007000F05905048C078000900017F
:101C9000059908434D49C8704948008D484E009049
:101CA000F38CB28C718C308CFFF760FE464909785A
:101CB000484385B2912D00DD912509212846FEF784
:101CC00037FA0001F02108404049C978F0229143D9
:101CD00008433E49C8700846C0780009032826DA40
:101CE000364800880F2822DD3948008839494018D5
:101CF00000B237490880FEF72FFAC0B203210590E1
:101D0000FEF716FA0F46304909782C4A12885143DB
:101D100008461921FEF70CFA38180001F021084096
:101D200006462A48C078884330432849C87024486A
:101D3000408E234E0090338EF28DB18D708DFFF763
:101D400015FE21490978484385B2912D00DD912582
:101D500009212846FEF7ECF90007000F1B49097915
:101D60000909090108431949087108460079000763
:101D7000000F032846DA114800880F2842DD144876
:101D800000881449401800B211490880FEF7E4F9B0
:101D9000C0B2032105901FE0370000201D00002085
:101DA0001F0000203D0000204400002020000140D2
:101DB0003803002050020020BC0300203E00002019
:101DC000C4050020400000204D000020310000200C
:101DD0004E000020FF030000FEF7AAF90F464B4912
:101DE00009784B4A1288514308461921FEF7A0F999
:101DF00038180607360F47480079000900013043BC
:101E0000444908714448808F434E0090738F328F4D
:101E1000F18EB08EFFF7AAFD3C490978484385B2A0
:101E2000912D00DD912509212846FEF781F9000159
:101E3000F021084037490979F02291430843354998
:101E40000871084600790009032826DA304800881E
:101E50000F2822DD314800883149401800B22F494F
:101E60000880FEF779F9C0B203210590FEF760F90A
:101E70000F4626490978264A1288514308461921F7
:101E8000FEF756F938180001F021084006462148AF
:101E90000079884330431F4908711D4800880F2886
:101EA00032DD20490978481E0521FEF741F91D4918
:101EB000087008460078810040181B49194A1278BA
:101EC000895C4518184817490978405C401CC1B224
:101ED0001548144A1278815412490978405C042844
:101EE00004DD002110480F4A1278815409490D7011
:101EF00001200E4908700E480078322804DA0C4898
:101F00000078401C0A49087000BF52E54D000020CF
:101F10003E00002031000020C40500204E000020BB
:101F2000FF0300004000002045000020300000209A
:101F30003800002027480078012849D10020254991
:101F40000870032024490870244800780001032108
:101F500008432149487000211F48817020480078BB
:101F6000002808DD00201E49087008211A48C170A9
:101F70000021017107E00120194908703F2116482E
:101F8000C170FF2101711548007800010B21084341
:101F9000C1B211484171134801780F48817111484D
:101FA00081780D48C1710F48C1780B4801720D4806
:101FB0000179094841720021817208480078401C6B
:101FC0000649087008460078102801DD01200870D5
:101FD0007047000030000020EE02002013000020B7
:101FE00018000020310000207CB5002022E00246CD
:101FF0000021002305E04900D407E40F21435208E3
:102000005B1C062BF7D3814213D9C4000B4D651915
:1020100030CD01950094C400084D6419CD00074EE1
:10202000AE1960CE60C4CC00044D6419019E009DC1
:1020300060C4401C4028DAD37CBD0000BC030020F3
:1020400000BF5920054908601620086088200860F4
:10205000084600680028F4D07047000000010050D6
:1020600000BF5920054908601620086088200860D4
:10207000084600680028F4D07047000000010050B6
:1020800000B50346184600F001F800BD00BF0B493B
:1020900089690122D20511400029F8D10749086059
:1020A0000A280AD100BF054989690122D2051140D9
:1020B0000029F8D10D21014A116070470000054048
:1020C00070B5FEF7EDFD1649086016480069450732
:1020D0006D0F002D01D1144C0DE0022D02D11048DE
:1020E000046808E0032D01D1104C04E0072D01D154
:1020F0000F4C00E00E4C0B4880690007000F411C9C
:102100002046FDF7FFFF0B4908600B4909480068AE
:102110004A108018FDF7F6FF0849086070BD0000FE
:10212000A002002000020050001BB7001027000092
:10213000008051019C02002040420F00A4020020B8
:1021400002461448824206D11348406907231B0205
:102150001840010A05E01048406907231B03184096
:10216000010B00290AD10C4800688007800F012864
:1021700001D10A4870470120C003FBE7012901D1C2
:102180000748F7E7022902D106480068F2E7064847
:102190000068EFE70000014000020050001BB7009C
:1021A000102700009C02002098020020FEB5054682
:1021B0000F4616462846FFF7C3FF0446002001904D
:1021C00000906008B04202D20220019013E001208A
:1021D0004006844203D303200090A40806E00120B7
:1021E0000006844202D30120009064083146204654
:1021F000FDF788FF019000983843286001986860D7
:10220000009A521C0198504301462046FDF77AFF80
:10221000FEBD000010B564220121C9061048FFF779
:10222000C5FF00BF0E4800680121890708430C491B
:10223000086000BF0B4AC90209482030FFF7B6FF0B
:1022400000BF0748203000680121490708430449BE
:102250002031086000BF092000F0D8FD10BD00004B
:10226000000001407017000010B500BF01211B4A9B
:10227000916000BF1A49096BC807C00F1849096B64
:10228000C908C9000143164A116316490988412942
:102290000DDA114609688A05920D12490B880988E2
:1022A000491C104C218059000F4B5A520EE000215E
:1022B0000C4A118000BF0949096801229207914325
:1022C000064A116000BF0121084A11700449096AD9
:1022D0000122D2021143024A116210BD20000140C6
:1022E00000000E403A000020380300203D0000208E
:1022F00010B5FEF7BBFE10BD10B500F0C9FB10BD58
:10230000FEB504460D460027002001902148406993
:10231000032109060840060E002020630320E06028
:102320000020A060002E01D11B4F09E0012E03D137
:10233000FEF776FC074603E0022E01DB174807682C
:10234000144880690F2109020840000A0190019990
:10235000491C3846FDF7D6FE0746002D18D06908FF
:10236000C8192946FDF7CEFE801E00900C49009842
:10237000884208D9E900C8192946FDF7C3FE0009BB
:10238000801E606204E00321090700980843606230
:10239000FEBD000000020050001BB70098020020A4
:1023A000FFFF0000026A120A12020A430262426838
:1023B0000123DB021A43426070470000002000BF87
:1023C0000DE018490968184A115416498969012213
:1023D00092031140002900D003E0411CC8B2142828
:1023E000EFDB00BF00200DE010490968104A1154CE
:1023F0000E498969012292031140002900D003E0AF
:10240000411CC8B21428EFDB00BF002006E0002109
:10241000054A1154064A1154411CC8B21428F6DB6F
:1024200070470000000005400E030020000015402A
:102430002203002010B51E211148FFF7B3FF1048FA
:102440004068102108430E4948600C2000F0DEFC73
:102450004B21C9010A48FFF753FF1E210948FFF726
:10246000A1FF0848406801210843064948600D2043
:1024700000F0CCFC4B21C9010248FFF741FF10BD21
:10248000000005400000154010B5FFF733F8134871
:102490000078092804DD01201049087010490870EF
:1024A000104800781C2805DD00200E490870012026
:1024B0000B4908700C480078022804DD01200A4905
:1024C00008700749087009480078062804DD0120D3
:1024D000024908700249087010BD00000C0000207D
:1024E000190000200E0000200D0000200F00002029
:1024F000002032490978012928D100212F4A117082
:102500002F4A11702F4A11702F4A11702F4A1170E3
:10251000F0212F4A117000BF13E02B4909784200C7
:1025200082182C4BD2185170284909784200821821
:1025300099542749097842008218D2189170411C99
:10254000C8B20A28E9DB0121234A11701C49097825
:10255000642905DA1A490978491C194A117070472B
:102560001B490978002905DD19490978C91E184A4F
:10257000117005E00021194A117001210F4A1170F4
:10258000002013E01049097842008218114BD2183C
:1025900051700E4909784200821899540C49097803
:1025A00042008218D2189170411CC8B20A28E9DB97
:1025B0000121094A117000BFD1E700001E00002070
:1025C0002100002020000020220000202300002005
:1025D00024000020B00200201F0000201D00002069
:1025E000002040490978012930D100213D4A11706D
:1025F00000BF1BE0410041183B4A515C4200821879
:102600003A4BD218517041004118374A891849781D
:1026100042008218995441004118334A8918897838
:1026200042008218D2189170411CC8B20A28E1DB1E
:1026300001212F4A117000212E4A11702E4A11706B
:102640002E4A11702E4A11702E4A117029490978AC
:102650000A2905DA27490978491C264A117070476A
:102660000021244A11702149097F244A11701F4911
:10267000C97E234A11701D49497F224A11700920E1
:102680001EE0411E4A008918184A891849784200FC
:102690008218164BD2185170411E4A0089181A46EA
:1026A000515C420082189954411E4A0089181A460A
:1026B0008918897842008218D2189170411EC8B2D8
:1026C0000028DEDC0D490978084A51700C49097868
:1026D00011700C49097891700121054A117000BFF1
:1026E000BDE700001E00002080330000B002002083
:1026F0001F000020210000202000002022000020D8
:102700002300002024000020F8B500200090D248CB
:102710000078002800D1F8BD0020CF490870CF48CC
:10272000857806794479002E73DD342D72D006DC6D
:10273000012D09D0322D2DD0332D6CD16DE0352DEA
:102740006AD0362DF9D113E1012C09D1C4480078A3
:1027500001281ED00120C2490870C249087018E043
:10276000022C0AD1BE480078022812D00220BC49AF
:1027700008700120BB4908700BE0042C09D1B8484F
:102780000078032805D00320B54908700120B54919
:102790000870F8E01C2C03DD3120B3490870F2E02A
:1027A000B2480078082802DD0120B0490870B0481E
:1027B00004700320AF490870AF480078000103217E
:1027C0000843AC4948700021AA4881703F21C1707C
:1027D000FF210171A8480078000103210843C1B21C
:1027E000A4484171A1480178A2488171A0480178AC
:1027F000A048C171002101724172817201200090D4
:102800009E49087004209649087001209549087077
:10281000B9E0B9E03AE0B5E080E0092C03DD322010
:1028200091490870AFE0601C9049087003209149FD
:102830000870914800780001032108438D494870D1
:1028400000218C4881703F21C170FF2101718A48AD
:102850000078000103210843C1B2864841718348D2
:10286000017884488171824801788248C1710021D1
:102870000172417281720120009080490870042029
:10288000774908700120774908707CE0062C03DD49
:1028900033207549087076E079490020085EFDF71D
:1028A00064FCFDF759FCC7B203213846FDF740FC34
:1028B000491CC8B2734908707348047003206D49FD
:1028C00008706D4800780001032108436949487089
:1028D0000021684881703F21C170FF210171664865
:1028E000007800010A210843C1B26248417165487D
:1028F000017860488171644801785E48C1710021A7
:10290000017241728172012000905C4908700420BC
:102910005349087001205349087034E00320554999
:102920000870554800780001032108435149487058
:102930000021504881703F21C170FF2101714E4834
:102940000078000105210843C1B24A4841718471F1
:102950000021C171017241728172012000904749CA
:10296000087004203E49087001203E4908700AE0C2
:10297000002C03D100204549087002E001204349A2
:10298000087000E000BF57E0312D27D103203949FE
:102990000870394800780001032108433549487020
:1029A0000021344881703F21C170FF2101713248FC
:1029B0000078000103210843C1B22E484171002173
:1029C0008171C171017241728172012000900420F5
:1029D000234908700120234908702DE0302D28D1AB
:1029E000032024490870244800780001032108438B
:1029F0002049487000211F4881703F21C170FF218C
:102A000001711D480078000103210843C1B2194833
:102A10004171FF2181710021C17101724172817286
:102A20000120009004200E49087001200D49087013
:102A300002E030200C490870009800280AD00E48A7
:102A40000078401C0C49087008460078102801DD09
:102A50000120087000BF5EE628000020DE02002092
:102A60001D0000201E000020100000200C0000208F
:102A70000E000020EE0200201300002019000020AC
:102A8000140000200D0000200F0000203600002060
:102A9000002013490968C8B20021124A1170124976
:102AA0000978002907D1552805D101210E4A117056
:102AB00000210E4A11700C49097801290ED10B49E9
:102AC0000A780978491C094B197009498854194634
:102AD0000978142902DB0021034A117070470000B5
:102AE000000015402B0000202A0000202C000020B0
:102AF00022030020002015490978002902D1144A38
:102B0000117070471149097801291DD110490978C0
:102B1000491C0F4A117011460978052913DD00215F
:102B200011700A4A117001210A4A1170002008E050
:102B300009490A5C09490A540021074A1154411CF9
:102B4000C8B21428F4DBDCE700BFDAE72A00002073
:102B50002B0000202800002022030020DF0200209C
:102B600001490860704700000000154010B50024BE
:102B700016480078002800D110BD144800780128BC
:102B800009D1FC20FFF7ECFFFE20FFF7E9FF022050
:102B90000E490870F0E70D480078022813D1FD2097
:102BA000FFF7DEFF002406E00849491C085DFFF737
:102BB000D7FF601CC4B2082CF6DBFE20FFF7D0FF65
:102BC00000200249087000BFD6E70000FE02002086
:102BD00000B5002069490978012928D10021674AF8
:102BE000117000BF0FE0FF2142008218644BD21821
:102BF0005170002142008218995442008218D21864
:102C00009170411CC8B20A28EDDB01215D4A1170A8
:102C100000215D4A11705D4A1170FF215C4A1170FC
:102C200000215C4A11705C4A11705C4A117056496F
:102C30000978042905DA54490978491C524A117067
:102C400000BD0021504A1170504909780B0000F076
:102C5000CEF806041424344454624E490978FF29FE
:102C600005DA4C4909780F314A4A117004E04749A6
:102C70000978491C454A11704DE0454909780029F9
:102C800005DD434909780F39414A117004E03F4995
:102C90000978491C3D4A11703DE03F490978FF29F8
:102CA00005DA3D4909780F313B4A117004E0374994
:102CB0000978491C354A11702DE0364909780029F8
:102CC00005DD344909780F39324A117004E02F4983
:102CD0000978491C2D4A11701DE02D490978FF29FA
:102CE00005DA2B4909780F31294A117004E0274988
:102CF0000978491C254A11700DE0274909780029F7
:102D000005DD254909780F39234A117002E00021B9
:102D10001E4A117000BF00BF09201EE0411E4A007C
:102D20008918174A8918497842008218144BD2181A
:102D30005170411E4A0089181A46515C420082189F
:102D40009954411E4A0089181A4689188978420008
:102D50008218D2189170411EC8B20028DEDC0C49DE
:102D60000978074A51700B49097811700A490978A6
:102D700091700121034A117000BF61E71E0000201D
:102D8000B00200201F0000202100002020000020B1
:102D90002200002023000020240000202600002024
:102DA0000FB410B503A9044B044A029800F050F880
:102DB00010BC08BC04B01847573100009002002036
:102DC0002021020C01D010211046020A01D0104629
:102DD0000839020901D01046091F820801D01046A7
:102DE000891E420801D0881E7047081A704730B407
:102DF0007446641E2578641CAB4204D3635D5B009B
:102E0000E31830BC18471D46F8E70000002805DB32
:102E1000C206D20E01219140014A116070470000A4
:102E200000E100E002E008C8121F08C1002AFAD140
:102E300070477047002001E001C1121F002AFBD13A
:102E4000704700000149086070470000AC02002094
:102E5000FFB58FB00F460446002606E025280AD0AD
:102E6000129A11999047641C761C20780028F5D19D
:102E7000304613B0F0BD00250121A14A009500E0C5
:102E80000543641C23780846203B98401042F7D144
:102E900020782E2815D1042005436078641C2A2848
:102EA0000AD101CF641C00900BE000990A22514323
:102EB00030394018641C00902078014630390929C7
:102EC000F3D920786C280ED004DC4C2813D06A2863
:102ED00012D104E074280ED07A280DD10BE0012025
:102EE0004005054307E00121090562780D43824250
:102EF00001D16D18641C641C2078864669284AD06C
:102F000008DC0028B4D058286DD0632810D064287D
:102F100008D140E070286BD0732812D0752860D09B
:102F2000782860D0129A704611999047761CE5E097
:102F30003878694608720020487202A80190012082
:102F400003E0386801900020C0433F1D69070CD59D
:102F5000002500E06D1C00998D420FDA8542F9DBF7
:102F60000199495D0029F5D108E0002500E06D1CBC
:102F70008542FCDB0199495D0029F8D1761907E00B
:102F8000019801990078491C0191129A1199904772
:102F90006D1EF5D2B2E00A20029000216802400FB7
:102FA000039102280CD001CFC117844600290DDA05
:102FB0006246084652420021814194462D2008E095
:102FC000FF1DFF08FF0003CF8446EFE7280504D567
:102FD0002B206A46107401203CE0E8073AD02020FC
:102FE000F7E70A2000E0102000210391029007E09B
:102FF0001020029000210420054308200391009036
:103000006802400F022810D001CF00218446002022
:103010000D9028071FD5704670280CD0029A1020FA
:10302000039B42401A430CD015E0FF1DFF08FF0030
:1030300003CF8446EBE740206A46107401200D90D0
:103040000CE06046084306D030206A461074704693
:10305000507402200D907046582804D029A0019089
:103060000DA80E900DE02CA0F9E76046039B029A94
:10307000FDF754F9019B84469B5C0E9A521E0E92FA
:10308000137060460843F0D10E9805A9081A203045
:103090000190680701D5009801E001200090019996
:1030A000884203DD01460198081A00E0002000254F
:1030B000009006E004A8129A405D119990476D1C9B
:1030C000761C0D988542F5DB04E0129A30201199A8
:1030D0009047761C0099481E00900029F5DC08E016
:1030E0000E980E990078491C0E91129A11999047EA
:1030F000761C0199481E01900029F1DC641CB4E69D
:1031000009280100303132333435363738396162BD
:103110006364656600000000303132333435363781
:103120003839414243444546000000000FB41CB505
:10313000044607990598FDF721F80090089906982C
:10314000FDF71CF8019001990098616020601CBC9B
:1031500008BC04B0184730B504460D462046FEF7BB
:103160008FFF204630BD0000FEF7F4FBFFF726F985
:10317000FFF78AF939E000BF1C488068C007C00F1C
:10318000002832D000BF01201849886000BF00BF6E
:1031900000BF00BF5920164908601620086088202B
:1031A0000860084600680028F4D000BF1148006895
:1031B000C007C00F0F49086000BF00200C4908601D
:1031C00000BFFDF7E3FFFDF7A1FFFFF7CFFCFFF71F
:1031D00091FCFEF71DFAFEF7DDFBFEF745F8FDF763
:1031E000D3FAFDF74BFBFEF737FAC4E700000140C6
:1031F00000010050004000400FB47CB504460A991D
:103200000898FDF714F8054609990798FDF70FF897
:1032100006462946FDF703F8009009990898FDF73E
:1032200006F805460A990798FDF701F8064629466B
:10323000FCF7A4FF019001990098616020607CBCBC
:1032400008BC04B018470000F8B506460C46FDF768
:1032500046F9051E0F4600D00120014349000B48E6
:103260004908411AC90F0DD0002E01D0012100E0FC
:1032700000210C4361004908401AC00F02D101200F
:10328000FFF7E0FD28463946F8BD00000000F07F5A
:1032900010B5044610A02168FFF782FD11A06168F7
:1032A000FFF77EFD12A0A168FFF77AFD13A0E16889
:1032B000FFF776FD14A02169FFF772FD15A0616983
:1032C000FFF76EFD16A0A169FFF76AFD17A0E1697F
:1032D000FFF766FD10BD0000723020203D203078E1
:1032E00025780A00723120203D20307825780A00A8
:1032F000723220203D20307825780A007233202059
:103300003D20307825780A00723132203D20307817
:1033100025780A006C7220203D20307825780A003C
:10332000706320203D20307825780A007073722069
:103330003D20307825780A000FB41CB50446079963
:103340000598FCF76CFF009008990698FCF767FF5A
:10335000019001990098616020601CBC08BC04B019
:1033600018470000FA000AFA0014FA001EFA0000DA
:10337000000000000000000000000000000000004D
:10338000FA0000FA0A00FA1400FA1E000000000019
:10339000000000000000000000000000000000002D
:1033A000C033000000000020B0020000C40500008F
:1033B00028350000B0020020E0050000342E000097
:1033C0000210000182010A031A0100010213FF1614
:1033D00023803F06103D1EC47E3FB6BEC8BD0E15FD
:1033E0007B3FACC547BE05FA743F959F94BE66838C
:1033F0006C3FA2EEC3BE82C5613F575BF1BE38DBB6
:10340000543FD6390EBFFCE3453F626722BF290512
:10341000353F0412BF0C123F1412BF1C123F24127E
:10342000BF2C123E3412BF3C123E4412BF4C123E1F
:103430005412BF5C123E6412BF6C123D7452BF84C2
:10344000211022BD10217C2120217C2130217C21D2
:1034500040217C2150217C2160217C2170217C2114
:1034600080217C2114211C21A0217C2134217C215C
:1034700044214C21D0217C2164216C21F0217C55F8
:103480000031945120523E30523E40523E50523E06
:1034900060523F70523F80523F90523FA0523FB027
:1034A000523FC0523FD0523FE0523FF0663F8455FA
:1034B00010563F20563F30563F40563F50563F60D3
:1034C000563F70563F80563F90563FA0563FB056ED
:1034D0003EC0563ED0563EE0563EF088423D00206B
:1034E000103008281838042414340C2C1C3C0222F8
:1034F00012320A2A1A3A062616360E2E1E3E0121CE
:10350000113109291939052515350D2D1D3D0323C7
:1035100013330B2B1B3B072717370F2F1F3F47B3C7
:083520005101085101000000F7
:04000005000000F106
:00000001FF
